{
  "_format": "hh-sol-artifact-1",
  "contractName": "BTNX",
  "sourceName": "contracts/BTNX.sol",
  "abi": [
    {
      "inputs": [],
      "stateMutability": "nonpayable",
      "type": "constructor"
    },
    {
      "inputs": [
        {
          "internalType": "address",
          "name": "spender",
          "type": "address"
        },
        {
          "internalType": "uint256",
          "name": "allowance",
          "type": "uint256"
        },
        {
          "internalType": "uint256",
          "name": "needed",
          "type": "uint256"
        }
      ],
      "name": "ERC20InsufficientAllowance",
      "type": "error"
    },
    {
      "inputs": [
        {
          "internalType": "address",
          "name": "sender",
          "type": "address"
        },
        {
          "internalType": "uint256",
          "name": "balance",
          "type": "uint256"
        },
        {
          "internalType": "uint256",
          "name": "needed",
          "type": "uint256"
        }
      ],
      "name": "ERC20InsufficientBalance",
      "type": "error"
    },
    {
      "inputs": [
        {
          "internalType": "address",
          "name": "approver",
          "type": "address"
        }
      ],
      "name": "ERC20InvalidApprover",
      "type": "error"
    },
    {
      "inputs": [
        {
          "internalType": "address",
          "name": "receiver",
          "type": "address"
        }
      ],
      "name": "ERC20InvalidReceiver",
      "type": "error"
    },
    {
      "inputs": [
        {
          "internalType": "address",
          "name": "sender",
          "type": "address"
        }
      ],
      "name": "ERC20InvalidSender",
      "type": "error"
    },
    {
      "inputs": [
        {
          "internalType": "address",
          "name": "spender",
          "type": "address"
        }
      ],
      "name": "ERC20InvalidSpender",
      "type": "error"
    },
    {
      "inputs": [
        {
          "internalType": "address",
          "name": "owner",
          "type": "address"
        }
      ],
      "name": "OwnableInvalidOwner",
      "type": "error"
    },
    {
      "inputs": [
        {
          "internalType": "address",
          "name": "account",
          "type": "address"
        }
      ],
      "name": "OwnableUnauthorizedAccount",
      "type": "error"
    },
    {
      "anonymous": false,
      "inputs": [
        {
          "indexed": true,
          "internalType": "address",
          "name": "owner",
          "type": "address"
        },
        {
          "indexed": true,
          "internalType": "address",
          "name": "spender",
          "type": "address"
        },
        {
          "indexed": false,
          "internalType": "uint256",
          "name": "value",
          "type": "uint256"
        }
      ],
      "name": "Approval",
      "type": "event"
    },
    {
      "anonymous": false,
      "inputs": [
        {
          "indexed": true,
          "internalType": "address",
          "name": "previousOwner",
          "type": "address"
        },
        {
          "indexed": true,
          "internalType": "address",
          "name": "newOwner",
          "type": "address"
        }
      ],
      "name": "OwnershipTransferred",
      "type": "event"
    },
    {
      "anonymous": false,
      "inputs": [
        {
          "indexed": true,
          "internalType": "address",
          "name": "from",
          "type": "address"
        },
        {
          "indexed": true,
          "internalType": "address",
          "name": "to",
          "type": "address"
        },
        {
          "indexed": false,
          "internalType": "uint256",
          "name": "value",
          "type": "uint256"
        }
      ],
      "name": "Transfer",
      "type": "event"
    },
    {
      "inputs": [
        {
          "internalType": "address",
          "name": "owner",
          "type": "address"
        },
        {
          "internalType": "address",
          "name": "spender",
          "type": "address"
        }
      ],
      "name": "allowance",
      "outputs": [
        {
          "internalType": "uint256",
          "name": "",
          "type": "uint256"
        }
      ],
      "stateMutability": "view",
      "type": "function"
    },
    {
      "inputs": [
        {
          "internalType": "address",
          "name": "spender",
          "type": "address"
        },
        {
          "internalType": "uint256",
          "name": "value",
          "type": "uint256"
        }
      ],
      "name": "approve",
      "outputs": [
        {
          "internalType": "bool",
          "name": "",
          "type": "bool"
        }
      ],
      "stateMutability": "nonpayable",
      "type": "function"
    },
    {
      "inputs": [
        {
          "internalType": "address",
          "name": "account",
          "type": "address"
        }
      ],
      "name": "balanceOf",
      "outputs": [
        {
          "internalType": "uint256",
          "name": "",
          "type": "uint256"
        }
      ],
      "stateMutability": "view",
      "type": "function"
    },
    {
      "inputs": [
        {
          "internalType": "address",
          "name": "from",
          "type": "address"
        },
        {
          "internalType": "uint256",
          "name": "amount",
          "type": "uint256"
        }
      ],
      "name": "burn",
      "outputs": [],
      "stateMutability": "nonpayable",
      "type": "function"
    },
    {
      "inputs": [],
      "name": "controller",
      "outputs": [
        {
          "internalType": "address",
          "name": "",
          "type": "address"
        }
      ],
      "stateMutability": "view",
      "type": "function"
    },
    {
      "inputs": [],
      "name": "decimals",
      "outputs": [
        {
          "internalType": "uint8",
          "name": "",
          "type": "uint8"
        }
      ],
      "stateMutability": "view",
      "type": "function"
    },
    {
      "inputs": [
        {
          "internalType": "address",
          "name": "to",
          "type": "address"
        },
        {
          "internalType": "uint256",
          "name": "amount",
          "type": "uint256"
        }
      ],
      "name": "mint",
      "outputs": [],
      "stateMutability": "nonpayable",
      "type": "function"
    },
    {
      "inputs": [],
      "name": "name",
      "outputs": [
        {
          "internalType": "string",
          "name": "",
          "type": "string"
        }
      ],
      "stateMutability": "view",
      "type": "function"
    },
    {
      "inputs": [],
      "name": "owner",
      "outputs": [
        {
          "internalType": "address",
          "name": "",
          "type": "address"
        }
      ],
      "stateMutability": "view",
      "type": "function"
    },
    {
      "inputs": [],
      "name": "renounceOwnership",
      "outputs": [],
      "stateMutability": "nonpayable",
      "type": "function"
    },
    {
      "inputs": [
        {
          "internalType": "address",
          "name": "_controller",
          "type": "address"
        }
      ],
      "name": "setController",
      "outputs": [],
      "stateMutability": "nonpayable",
      "type": "function"
    },
    {
      "inputs": [],
      "name": "symbol",
      "outputs": [
        {
          "internalType": "string",
          "name": "",
          "type": "string"
        }
      ],
      "stateMutability": "view",
      "type": "function"
    },
    {
      "inputs": [],
      "name": "totalSupply",
      "outputs": [
        {
          "internalType": "uint256",
          "name": "",
          "type": "uint256"
        }
      ],
      "stateMutability": "view",
      "type": "function"
    },
    {
      "inputs": [
        {
          "internalType": "address",
          "name": "to",
          "type": "address"
        },
        {
          "internalType": "uint256",
          "name": "value",
          "type": "uint256"
        }
      ],
      "name": "transfer",
      "outputs": [
        {
          "internalType": "bool",
          "name": "",
          "type": "bool"
        }
      ],
      "stateMutability": "nonpayable",
      "type": "function"
    },
    {
      "inputs": [
        {
          "internalType": "address",
          "name": "from",
          "type": "address"
        },
        {
          "internalType": "address",
          "name": "to",
          "type": "address"
        },
        {
          "internalType": "uint256",
          "name": "value",
          "type": "uint256"
        }
      ],
      "name": "transferFrom",
      "outputs": [
        {
          "internalType": "bool",
          "name": "",
          "type": "bool"
        }
      ],
      "stateMutability": "nonpayable",
      "type": "function"
    },
    {
      "inputs": [
        {
          "internalType": "address",
          "name": "newOwner",
          "type": "address"
        }
      ],
      "name": "transferOwnership",
      "outputs": [],
      "stateMutability": "nonpayable",
      "type": "function"
    }
  ],
  "bytecode": "0x60806040523480156200001157600080fd5b50336040518060400160405280600e81526020017f42687574616e20655870726573730000000000000000000000000000000000008152506040518060400160405280600481526020017f42544e5800000000000000000000000000000000000000000000000000000000815250816003908162000090919062000472565b508060049081620000a2919062000472565b505050600073ffffffffffffffffffffffffffffffffffffffff168173ffffffffffffffffffffffffffffffffffffffff16036200011a5760006040517f1e4fbdf70000000000000000000000000000000000000000000000000000000081526004016200011191906200059e565b60405180910390fd5b6200012b816200013260201b60201c565b50620005bb565b6000600560009054906101000a900473ffffffffffffffffffffffffffffffffffffffff16905081600560006101000a81548173ffffffffffffffffffffffffffffffffffffffff021916908373ffffffffffffffffffffffffffffffffffffffff1602179055508173ffffffffffffffffffffffffffffffffffffffff168173ffffffffffffffffffffffffffffffffffffffff167f8be0079c531659141344cd1fd0a4f28419497f9722a3daafe3b4186f6b6457e060405160405180910390a35050565b600081519050919050565b7f4e487b7100000000000000000000000000000000000000000000000000000000600052604160045260246000fd5b7f4e487b7100000000000000000000000000000000000000000000000000000000600052602260045260246000fd5b600060028204905060018216806200027a57607f821691505b60208210810362000290576200028f62000232565b5b50919050565b60008190508160005260206000209050919050565b60006020601f8301049050919050565b600082821b905092915050565b600060088302620002fa7fffffffffffffffffffffffffffffffffffffffffffffffffffffffffffffffff82620002bb565b620003068683620002bb565b95508019841693508086168417925050509392505050565b6000819050919050565b6000819050919050565b6000620003536200034d62000347846200031e565b62000328565b6200031e565b9050919050565b6000819050919050565b6200036f8362000332565b620003876200037e826200035a565b848454620002c8565b825550505050565b600090565b6200039e6200038f565b620003ab81848462000364565b505050565b5b81811015620003d357620003c760008262000394565b600181019050620003b1565b5050565b601f8211156200042257620003ec8162000296565b620003f784620002ab565b8101602085101562000407578190505b6200041f6200041685620002ab565b830182620003b0565b50505b505050565b600082821c905092915050565b6000620004476000198460080262000427565b1980831691505092915050565b600062000462838362000434565b9150826002028217905092915050565b6200047d82620001f8565b67ffffffffffffffff81111562000499576200049862000203565b5b620004a5825462000261565b620004b2828285620003d7565b600060209050601f831160018114620004ea5760008415620004d5578287015190505b620004e1858262000454565b86555062000551565b601f198416620004fa8662000296565b60005b828110156200052457848901518255600182019150602085019450602081019050620004fd565b8683101562000544578489015162000540601f89168262000434565b8355505b6001600288020188555050505b505050505050565b600073ffffffffffffffffffffffffffffffffffffffff82169050919050565b6000620005868262000559565b9050919050565b620005988162000579565b82525050565b6000602082019050620005b560008301846200058d565b92915050565b6114a880620005cb6000396000f3fe608060405234801561001057600080fd5b50600436106101005760003560e01c80638da5cb5b11610097578063a9059cbb11610066578063a9059cbb14610289578063dd62ed3e146102b9578063f2fde38b146102e9578063f77c47911461030557610100565b80638da5cb5b1461021557806392eefe9b1461023357806395d89b411461024f5780639dc29fac1461026d57610100565b8063313ce567116100d3578063313ce567146101a157806340c10f19146101bf57806370a08231146101db578063715018a61461020b57610100565b806306fdde0314610105578063095ea7b31461012357806318160ddd1461015357806323b872dd14610171575b600080fd5b61010d610323565b60405161011a9190611090565b60405180910390f35b61013d6004803603810190610138919061114b565b6103b5565b60405161014a91906111a6565b60405180910390f35b61015b6103d8565b60405161016891906111d0565b60405180910390f35b61018b600480360381019061018691906111eb565b6103e2565b60405161019891906111a6565b60405180910390f35b6101a9610411565b6040516101b6919061125a565b60405180910390f35b6101d960048036038101906101d4919061114b565b61041a565b005b6101f560048036038101906101f09190611275565b6104b8565b60405161020291906111d0565b60405180910390f35b610213610500565b005b61021d610514565b60405161022a91906112b1565b60405180910390f35b61024d60048036038101906102489190611275565b61053e565b005b61025761058a565b6040516102649190611090565b60405180910390f35b6102876004803603810190610282919061114b565b61061c565b005b6102a3600480360381019061029e919061114b565b6106ba565b6040516102b091906111a6565b60405180910390f35b6102d360048036038101906102ce91906112cc565b6106dd565b6040516102e091906111d0565b60405180910390f35b61030360048036038101906102fe9190611275565b610764565b005b61030d6107ea565b60405161031a91906112b1565b60405180910390f35b6060600380546103329061133b565b80601f016020809104026020016040519081016040528092919081815260200182805461035e9061133b565b80156103ab5780601f10610380576101008083540402835291602001916103ab565b820191906000526020600020905b81548152906001019060200180831161038e57829003601f168201915b5050505050905090565b6000806103c0610810565b90506103cd818585610818565b600191505092915050565b6000600254905090565b6000806103ed610810565b90506103fa85828561082a565b6104058585856108bf565b60019150509392505050565b60006012905090565b600660009054906101000a900473ffffffffffffffffffffffffffffffffffffffff1673ffffffffffffffffffffffffffffffffffffffff163373ffffffffffffffffffffffffffffffffffffffff16146104aa576040517f08c379a00000000000000000000000000000000000000000000000000000000081526004016104a1906113b8565b60405180910390fd5b6104b482826109b3565b5050565b60008060008373ffffffffffffffffffffffffffffffffffffffff1673ffffffffffffffffffffffffffffffffffffffff168152602001908152602001600020549050919050565b610508610a35565b6105126000610abc565b565b6000600560009054906101000a900473ffffffffffffffffffffffffffffffffffffffff16905090565b610546610a35565b80600660006101000a81548173ffffffffffffffffffffffffffffffffffffffff021916908373ffffffffffffffffffffffffffffffffffffffff16021790555050565b6060600480546105999061133b565b80601f01602080910402602001604051908101604052809291908181526020018280546105c59061133b565b80156106125780601f106105e757610100808354040283529160200191610612565b820191906000526020600020905b8154815290600101906020018083116105f557829003601f168201915b5050505050905090565b600660009054906101000a900473ffffffffffffffffffffffffffffffffffffffff1673ffffffffffffffffffffffffffffffffffffffff163373ffffffffffffffffffffffffffffffffffffffff16146106ac576040517f08c379a00000000000000000000000000000000000000000000000000000000081526004016106a3906113b8565b60405180910390fd5b6106b68282610b82565b5050565b6000806106c5610810565b90506106d28185856108bf565b600191505092915050565b6000600160008473ffffffffffffffffffffffffffffffffffffffff1673ffffffffffffffffffffffffffffffffffffffff16815260200190815260200160002060008373ffffffffffffffffffffffffffffffffffffffff1673ffffffffffffffffffffffffffffffffffffffff16815260200190815260200160002054905092915050565b61076c610a35565b600073ffffffffffffffffffffffffffffffffffffffff168173ffffffffffffffffffffffffffffffffffffffff16036107de5760006040517f1e4fbdf70000000000000000000000000000000000000000000000000000000081526004016107d591906112b1565b60405180910390fd5b6107e781610abc565b50565b600660009054906101000a900473ffffffffffffffffffffffffffffffffffffffff1681565b600033905090565b6108258383836001610c04565b505050565b600061083684846106dd565b90507fffffffffffffffffffffffffffffffffffffffffffffffffffffffffffffffff8110156108b957818110156108a9578281836040517ffb8f41b20000000000000000000000000000000000000000000000000000000081526004016108a0939291906113d8565b60405180910390fd5b6108b884848484036000610c04565b5b50505050565b600073ffffffffffffffffffffffffffffffffffffffff168373ffffffffffffffffffffffffffffffffffffffff16036109315760006040517f96c6fd1e00000000000000000000000000000000000000000000000000000000815260040161092891906112b1565b60405180910390fd5b600073ffffffffffffffffffffffffffffffffffffffff168273ffffffffffffffffffffffffffffffffffffffff16036109a35760006040517fec442f0500000000000000000000000000000000000000000000000000000000815260040161099a91906112b1565b60405180910390fd5b6109ae838383610ddb565b505050565b600073ffffffffffffffffffffffffffffffffffffffff168273ffffffffffffffffffffffffffffffffffffffff1603610a255760006040517fec442f05000000000000000000000000000000000000000000000000000000008152600401610a1c91906112b1565b60405180910390fd5b610a3160008383610ddb565b5050565b610a3d610810565b73ffffffffffffffffffffffffffffffffffffffff16610a5b610514565b73ffffffffffffffffffffffffffffffffffffffff1614610aba57610a7e610810565b6040517f118cdaa7000000000000000000000000000000000000000000000000000000008152600401610ab191906112b1565b60405180910390fd5b565b6000600560009054906101000a900473ffffffffffffffffffffffffffffffffffffffff16905081600560006101000a81548173ffffffffffffffffffffffffffffffffffffffff021916908373ffffffffffffffffffffffffffffffffffffffff1602179055508173ffffffffffffffffffffffffffffffffffffffff168173ffffffffffffffffffffffffffffffffffffffff167f8be0079c531659141344cd1fd0a4f28419497f9722a3daafe3b4186f6b6457e060405160405180910390a35050565b600073ffffffffffffffffffffffffffffffffffffffff168273ffffffffffffffffffffffffffffffffffffffff1603610bf45760006040517f96c6fd1e000000000000000000000000000000000000000000000000000000008152600401610beb91906112b1565b60405180910390fd5b610c0082600083610ddb565b5050565b600073ffffffffffffffffffffffffffffffffffffffff168473ffffffffffffffffffffffffffffffffffffffff1603610c765760006040517fe602df05000000000000000000000000000000000000000000000000000000008152600401610c6d91906112b1565b60405180910390fd5b600073ffffffffffffffffffffffffffffffffffffffff168373ffffffffffffffffffffffffffffffffffffffff1603610ce85760006040517f94280d62000000000000000000000000000000000000000000000000000000008152600401610cdf91906112b1565b60405180910390fd5b81600160008673ffffffffffffffffffffffffffffffffffffffff1673ffffffffffffffffffffffffffffffffffffffff16815260200190815260200160002060008573ffffffffffffffffffffffffffffffffffffffff1673ffffffffffffffffffffffffffffffffffffffff168152602001908152602001600020819055508015610dd5578273ffffffffffffffffffffffffffffffffffffffff168473ffffffffffffffffffffffffffffffffffffffff167f8c5be1e5ebec7d5bd14f71427d1e84f3dd0314c0f7b2291e5b200ac8c7c3b92584604051610dcc91906111d0565b60405180910390a35b50505050565b600073ffffffffffffffffffffffffffffffffffffffff168373ffffffffffffffffffffffffffffffffffffffff1603610e2d578060026000828254610e21919061143e565b92505081905550610f00565b60008060008573ffffffffffffffffffffffffffffffffffffffff1673ffffffffffffffffffffffffffffffffffffffff16815260200190815260200160002054905081811015610eb9578381836040517fe450d38c000000000000000000000000000000000000000000000000000000008152600401610eb0939291906113d8565b60405180910390fd5b8181036000808673ffffffffffffffffffffffffffffffffffffffff1673ffffffffffffffffffffffffffffffffffffffff16815260200190815260200160002081905550505b600073ffffffffffffffffffffffffffffffffffffffff168273ffffffffffffffffffffffffffffffffffffffff1603610f495780600260008282540392505081905550610f96565b806000808473ffffffffffffffffffffffffffffffffffffffff1673ffffffffffffffffffffffffffffffffffffffff168152602001908152602001600020600082825401925050819055505b8173ffffffffffffffffffffffffffffffffffffffff168373ffffffffffffffffffffffffffffffffffffffff167fddf252ad1be2c89b69c2b068fc378daa952ba7f163c4a11628f55a4df523b3ef83604051610ff391906111d0565b60405180910390a3505050565b600081519050919050565b600082825260208201905092915050565b60005b8381101561103a57808201518184015260208101905061101f565b60008484015250505050565b6000601f19601f8301169050919050565b600061106282611000565b61106c818561100b565b935061107c81856020860161101c565b61108581611046565b840191505092915050565b600060208201905081810360008301526110aa8184611057565b905092915050565b600080fd5b600073ffffffffffffffffffffffffffffffffffffffff82169050919050565b60006110e2826110b7565b9050919050565b6110f2816110d7565b81146110fd57600080fd5b50565b60008135905061110f816110e9565b92915050565b6000819050919050565b61112881611115565b811461113357600080fd5b50565b6000813590506111458161111f565b92915050565b60008060408385031215611162576111616110b2565b5b600061117085828601611100565b925050602061118185828601611136565b9150509250929050565b60008115159050919050565b6111a08161118b565b82525050565b60006020820190506111bb6000830184611197565b92915050565b6111ca81611115565b82525050565b60006020820190506111e560008301846111c1565b92915050565b600080600060608486031215611204576112036110b2565b5b600061121286828701611100565b935050602061122386828701611100565b925050604061123486828701611136565b9150509250925092565b600060ff82169050919050565b6112548161123e565b82525050565b600060208201905061126f600083018461124b565b92915050565b60006020828403121561128b5761128a6110b2565b5b600061129984828501611100565b91505092915050565b6112ab816110d7565b82525050565b60006020820190506112c660008301846112a2565b92915050565b600080604083850312156112e3576112e26110b2565b5b60006112f185828601611100565b925050602061130285828601611100565b9150509250929050565b7f4e487b7100000000000000000000000000000000000000000000000000000000600052602260045260246000fd5b6000600282049050600182168061135357607f821691505b6020821081036113665761136561130c565b5b50919050565b7f4e6f7420617574686f72697a6564000000000000000000000000000000000000600082015250565b60006113a2600e8361100b565b91506113ad8261136c565b602082019050919050565b600060208201905081810360008301526113d181611395565b9050919050565b60006060820190506113ed60008301866112a2565b6113fa60208301856111c1565b61140760408301846111c1565b949350505050565b7f4e487b7100000000000000000000000000000000000000000000000000000000600052601160045260246000fd5b600061144982611115565b915061145483611115565b925082820190508082111561146c5761146b61140f565b5b9291505056fea26469706673582212206ec300b942adf19dc2b16e955d8c758a912344f0d4a6da0c31aa2d7348c46a0c64736f6c63430008140033",
  "linkReferences": {},
  "deployedLinkReferences": {}
}